{
    "_format": "hh-sol-artifact-1",
    "contractName": "QuanionNFT",
    "sourceName": "contracts/QuanionNFT.sol",
    "abi": [
        {
            "inputs": [],
            "stateMutability": "payable",
            "type": "constructor"
        },
        {
            "anonymous": false,
            "inputs": [
                {
                    "indexed": true,
                    "internalType": "address",
                    "name": "owner",
                    "type": "address"
                },
                {
                    "indexed": true,
                    "internalType": "address",
                    "name": "approved",
                    "type": "address"
                },
                {
                    "indexed": true,
                    "internalType": "uint256",
                    "name": "tokenId",
                    "type": "uint256"
                }
            ],
            "name": "Approval",
            "type": "event"
        },
        {
            "anonymous": false,
            "inputs": [
                {
                    "indexed": true,
                    "internalType": "address",
                    "name": "owner",
                    "type": "address"
                },
                {
                    "indexed": true,
                    "internalType": "address",
                    "name": "operator",
                    "type": "address"
                },
                {
                    "indexed": false,
                    "internalType": "bool",
                    "name": "approved",
                    "type": "bool"
                }
            ],
            "name": "ApprovalForAll",
            "type": "event"
        },
        {
            "anonymous": false,
            "inputs": [
                {
                    "indexed": true,
                    "internalType": "address",
                    "name": "previousOwner",
                    "type": "address"
                },
                {
                    "indexed": true,
                    "internalType": "address",
                    "name": "newOwner",
                    "type": "address"
                }
            ],
            "name": "OwnershipTransferred",
            "type": "event"
        },
        {
            "anonymous": false,
            "inputs": [
                {
                    "indexed": true,
                    "internalType": "address",
                    "name": "from",
                    "type": "address"
                },
                {
                    "indexed": true,
                    "internalType": "address",
                    "name": "to",
                    "type": "address"
                },
                {
                    "indexed": true,
                    "internalType": "uint256",
                    "name": "tokenId",
                    "type": "uint256"
                }
            ],
            "name": "Transfer",
            "type": "event"
        },
        {
            "inputs": [
                {
                    "internalType": "address",
                    "name": "to",
                    "type": "address"
                },
                {
                    "internalType": "uint256",
                    "name": "tokenId",
                    "type": "uint256"
                }
            ],
            "name": "approve",
            "outputs": [],
            "stateMutability": "nonpayable",
            "type": "function"
        },
        {
            "inputs": [
                {
                    "internalType": "address",
                    "name": "owner",
                    "type": "address"
                }
            ],
            "name": "balanceOf",
            "outputs": [
                {
                    "internalType": "uint256",
                    "name": "",
                    "type": "uint256"
                }
            ],
            "stateMutability": "view",
            "type": "function"
        },
        {
            "inputs": [
                {
                    "internalType": "uint256",
                    "name": "tokenId",
                    "type": "uint256"
                }
            ],
            "name": "getApproved",
            "outputs": [
                {
                    "internalType": "address",
                    "name": "",
                    "type": "address"
                }
            ],
            "stateMutability": "view",
            "type": "function"
        },
        {
            "inputs": [
                {
                    "internalType": "address",
                    "name": "owner",
                    "type": "address"
                },
                {
                    "internalType": "address",
                    "name": "operator",
                    "type": "address"
                }
            ],
            "name": "isApprovedForAll",
            "outputs": [
                {
                    "internalType": "bool",
                    "name": "",
                    "type": "bool"
                }
            ],
            "stateMutability": "view",
            "type": "function"
        },
        {
            "inputs": [],
            "name": "isPublicMintEnabled",
            "outputs": [
                {
                    "internalType": "bool",
                    "name": "",
                    "type": "bool"
                }
            ],
            "stateMutability": "view",
            "type": "function"
        },
        {
            "inputs": [],
            "name": "maxPerWallet",
            "outputs": [
                {
                    "internalType": "uint256",
                    "name": "",
                    "type": "uint256"
                }
            ],
            "stateMutability": "view",
            "type": "function"
        },
        {
            "inputs": [],
            "name": "maxSupply",
            "outputs": [
                {
                    "internalType": "uint256",
                    "name": "",
                    "type": "uint256"
                }
            ],
            "stateMutability": "view",
            "type": "function"
        },
        {
            "inputs": [
                {
                    "internalType": "uint256",
                    "name": "quantity_",
                    "type": "uint256"
                }
            ],
            "name": "mint",
            "outputs": [],
            "stateMutability": "payable",
            "type": "function"
        },
        {
            "inputs": [],
            "name": "mintPrice",
            "outputs": [
                {
                    "internalType": "uint256",
                    "name": "",
                    "type": "uint256"
                }
            ],
            "stateMutability": "view",
            "type": "function"
        },
        {
            "inputs": [],
            "name": "name",
            "outputs": [
                {
                    "internalType": "string",
                    "name": "",
                    "type": "string"
                }
            ],
            "stateMutability": "view",
            "type": "function"
        },
        {
            "inputs": [],
            "name": "owner",
            "outputs": [
                {
                    "internalType": "address",
                    "name": "",
                    "type": "address"
                }
            ],
            "stateMutability": "view",
            "type": "function"
        },
        {
            "inputs": [
                {
                    "internalType": "uint256",
                    "name": "tokenId",
                    "type": "uint256"
                }
            ],
            "name": "ownerOf",
            "outputs": [
                {
                    "internalType": "address",
                    "name": "",
                    "type": "address"
                }
            ],
            "stateMutability": "view",
            "type": "function"
        },
        {
            "inputs": [],
            "name": "renounceOwnership",
            "outputs": [],
            "stateMutability": "nonpayable",
            "type": "function"
        },
        {
            "inputs": [
                {
                    "internalType": "address",
                    "name": "from",
                    "type": "address"
                },
                {
                    "internalType": "address",
                    "name": "to",
                    "type": "address"
                },
                {
                    "internalType": "uint256",
                    "name": "tokenId",
                    "type": "uint256"
                }
            ],
            "name": "safeTransferFrom",
            "outputs": [],
            "stateMutability": "nonpayable",
            "type": "function"
        },
        {
            "inputs": [
                {
                    "internalType": "address",
                    "name": "from",
                    "type": "address"
                },
                {
                    "internalType": "address",
                    "name": "to",
                    "type": "address"
                },
                {
                    "internalType": "uint256",
                    "name": "tokenId",
                    "type": "uint256"
                },
                {
                    "internalType": "bytes",
                    "name": "data",
                    "type": "bytes"
                }
            ],
            "name": "safeTransferFrom",
            "outputs": [],
            "stateMutability": "nonpayable",
            "type": "function"
        },
        {
            "inputs": [
                {
                    "internalType": "address",
                    "name": "operator",
                    "type": "address"
                },
                {
                    "internalType": "bool",
                    "name": "approved",
                    "type": "bool"
                }
            ],
            "name": "setApprovalForAll",
            "outputs": [],
            "stateMutability": "nonpayable",
            "type": "function"
        },
        {
            "inputs": [
                {
                    "internalType": "string",
                    "name": "baseTokenUri_",
                    "type": "string"
                }
            ],
            "name": "setBaseTokenUri",
            "outputs": [],
            "stateMutability": "nonpayable",
            "type": "function"
        },
        {
            "inputs": [
                {
                    "internalType": "bool",
                    "name": "isPublicMintEnabled_",
                    "type": "bool"
                }
            ],
            "name": "setisPublicMintEnabled",
            "outputs": [],
            "stateMutability": "nonpayable",
            "type": "function"
        },
        {
            "inputs": [
                {
                    "internalType": "bytes4",
                    "name": "interfaceId",
                    "type": "bytes4"
                }
            ],
            "name": "supportsInterface",
            "outputs": [
                {
                    "internalType": "bool",
                    "name": "",
                    "type": "bool"
                }
            ],
            "stateMutability": "view",
            "type": "function"
        },
        {
            "inputs": [],
            "name": "symbol",
            "outputs": [
                {
                    "internalType": "string",
                    "name": "",
                    "type": "string"
                }
            ],
            "stateMutability": "view",
            "type": "function"
        },
        {
            "inputs": [
                {
                    "internalType": "uint256",
                    "name": "tokenId_",
                    "type": "uint256"
                }
            ],
            "name": "tokenURI",
            "outputs": [
                {
                    "internalType": "string",
                    "name": "",
                    "type": "string"
                }
            ],
            "stateMutability": "view",
            "type": "function"
        },
        {
            "inputs": [],
            "name": "totalSupply",
            "outputs": [
                {
                    "internalType": "uint256",
                    "name": "",
                    "type": "uint256"
                }
            ],
            "stateMutability": "view",
            "type": "function"
        },
        {
            "inputs": [
                {
                    "internalType": "address",
                    "name": "from",
                    "type": "address"
                },
                {
                    "internalType": "address",
                    "name": "to",
                    "type": "address"
                },
                {
                    "internalType": "uint256",
                    "name": "tokenId",
                    "type": "uint256"
                }
            ],
            "name": "transferFrom",
            "outputs": [],
            "stateMutability": "nonpayable",
            "type": "function"
        },
        {
            "inputs": [
                {
                    "internalType": "address",
                    "name": "newOwner",
                    "type": "address"
                }
            ],
            "name": "transferOwnership",
            "outputs": [],
            "stateMutability": "nonpayable",
            "type": "function"
        },
        {
            "inputs": [
                {
                    "internalType": "address",
                    "name": "",
                    "type": "address"
                }
            ],
            "name": "walletMints",
            "outputs": [
                {
                    "internalType": "uint256",
                    "name": "",
                    "type": "uint256"
                }
            ],
            "stateMutability": "view",
            "type": "function"
        },
        {
            "inputs": [],
            "name": "withdraw",
            "outputs": [],
            "stateMutability": "nonpayable",
            "type": "function"
        },
        {
            "inputs": [],
            "name": "withdrawWallet",
            "outputs": [
                {
                    "internalType": "address payable",
                    "name": "",
                    "type": "address"
                }
            ],
            "stateMutability": "view",
            "type": "function"
        }
    ],
    "bytecode": "0x600f60808181526e5175616e696f6e2047656e6573697360881b60a0908152610100604052600360c09081526251554160e81b60e05291926200004591600091620000f0565b5080516200005b906001906020840190620000f0565b50505062000078620000726200009a60201b60201c565b6200009e565b670de0b6b3a764000060075560006008556113886009556001600a55620001d3565b3390565b600680546001600160a01b038381166001600160a01b0319831681179093556040519116919082907f8be0079c531659141344cd1fd0a4f28419497f9722a3daafe3b4186f6b6457e090600090a35050565b828054620000fe9062000196565b90600052602060002090601f0160209004810192826200012257600085556200016d565b82601f106200013d57805160ff19168380011785556200016d565b828001600101855582156200016d579182015b828111156200016d57825182559160200191906001019062000150565b506200017b9291506200017f565b5090565b5b808211156200017b576000815560010162000180565b600181811c90821680620001ab57607f821691505b60208210811415620001cd57634e487b7160e01b600052602260045260246000fd5b50919050565b611e3880620001e36000396000f3fe6080604052600436106101ac5760003560e01c8063715018a6116100ec578063b88d4fde1161008a578063d5abeb0111610064578063d5abeb011461047c578063e985e9c514610492578063f0293fd3146104db578063f2fde38b1461050857600080fd5b8063b88d4fde1461041c578063b90aebe21461043c578063c87b56dd1461045c57600080fd5b806395652cfa116100c657806395652cfa146103b457806395d89b41146103d4578063a0712d68146103e9578063a22cb465146103fc57600080fd5b8063715018a61461036157806385d178f4146103765780638da5cb5b1461039657600080fd5b806323b872dd11610159578063453c231011610133578063453c2310146102f55780636352211e1461030b5780636817c76c1461032b57806370a082311461034157600080fd5b806323b872dd146102a05780633ccfd60b146102c057806342842e0e146102d557600080fd5b8063081812fc1161018a578063081812fc14610222578063095ea7b31461025a57806318160ddd1461027c57600080fd5b80630116bc2d146101b157806301ffc9a7146101e057806306fdde0314610200575b600080fd5b3480156101bd57600080fd5b50600b546101cb9060ff1681565b60405190151581526020015b60405180910390f35b3480156101ec57600080fd5b506101cb6101fb366004611ae1565b610528565b34801561020c57600080fd5b506102156105c5565b6040516101d79190611cf4565b34801561022e57600080fd5b5061024261023d366004611b86565b610657565b6040516001600160a01b0390911681526020016101d7565b34801561026657600080fd5b5061027a610275366004611a9e565b61067e565b005b34801561028857600080fd5b5061029260085481565b6040519081526020016101d7565b3480156102ac57600080fd5b5061027a6102bb366004611965565b6107b5565b3480156102cc57600080fd5b5061027a61082c565b3480156102e157600080fd5b5061027a6102f0366004611965565b6108da565b34801561030157600080fd5b50610292600a5481565b34801561031757600080fd5b50610242610326366004611b86565b6108f5565b34801561033757600080fd5b5061029260075481565b34801561034d57600080fd5b5061029261035c366004611912565b61095a565b34801561036d57600080fd5b5061027a6109f4565b34801561038257600080fd5b50600d54610242906001600160a01b031681565b3480156103a257600080fd5b506006546001600160a01b0316610242565b3480156103c057600080fd5b5061027a6103cf366004611b19565b610a08565b3480156103e057600080fd5b50610215610a1c565b61027a6103f7366004611b86565b610a2b565b34801561040857600080fd5b5061027a610417366004611a75565b610bf7565b34801561042857600080fd5b5061027a6104373660046119a0565b610c02565b34801561044857600080fd5b5061027a610457366004611ac7565b610c80565b34801561046857600080fd5b50610215610477366004611b86565b610c9b565b34801561048857600080fd5b5061029260095481565b34801561049e57600080fd5b506101cb6104ad366004611933565b6001600160a01b03918216600090815260056020908152604080832093909416825291909152205460ff1690565b3480156104e757600080fd5b506102926104f6366004611912565b600e6020526000908152604090205481565b34801561051457600080fd5b5061027a610523366004611912565b610d34565b60006001600160e01b031982167f80ac58cd00000000000000000000000000000000000000000000000000000000148061058b57506001600160e01b031982167f5b5e139f00000000000000000000000000000000000000000000000000000000145b806105bf57507f01ffc9a7000000000000000000000000000000000000000000000000000000006001600160e01b03198316145b92915050565b6060600080546105d490611d6a565b80601f016020809104026020016040519081016040528092919081815260200182805461060090611d6a565b801561064d5780601f106106225761010080835404028352916020019161064d565b820191906000526020600020905b81548152906001019060200180831161063057829003601f168201915b5050505050905090565b600061066282610dc1565b506000908152600460205260409020546001600160a01b031690565b6000610689826108f5565b9050806001600160a01b0316836001600160a01b031614156107185760405162461bcd60e51b815260206004820152602160248201527f4552433732313a20617070726f76616c20746f2063757272656e74206f776e6560448201527f720000000000000000000000000000000000000000000000000000000000000060648201526084015b60405180910390fd5b336001600160a01b0382161480610734575061073481336104ad565b6107a65760405162461bcd60e51b815260206004820152603d60248201527f4552433732313a20617070726f76652063616c6c6572206973206e6f7420746f60448201527f6b656e206f776e6572206f7220617070726f76656420666f7220616c6c000000606482015260840161070f565b6107b08383610e25565b505050565b6107bf3382610ea0565b6108215760405162461bcd60e51b815260206004820152602d60248201527f4552433732313a2063616c6c6572206973206e6f7420746f6b656e206f776e6560448201526c1c881bdc88185c1c1c9bdd9959609a1b606482015260840161070f565b6107b0838383610f1f565b610834611125565b600d546040516000916001600160a01b03169047908381818185875af1925050503d8060008114610881576040519150601f19603f3d011682016040523d82523d6000602084013e610886565b606091505b50509050806108d75760405162461bcd60e51b815260206004820152600f60248201527f7769746864726177206661696c65640000000000000000000000000000000000604482015260640161070f565b50565b6107b083838360405180602001604052806000815250610c02565b6000818152600260205260408120546001600160a01b0316806105bf5760405162461bcd60e51b815260206004820152601860248201527f4552433732313a20696e76616c696420746f6b656e2049440000000000000000604482015260640161070f565b60006001600160a01b0382166109d85760405162461bcd60e51b815260206004820152602960248201527f4552433732313a2061646472657373207a65726f206973206e6f74206120766160448201527f6c6964206f776e65720000000000000000000000000000000000000000000000606482015260840161070f565b506001600160a01b031660009081526003602052604090205490565b6109fc611125565b610a06600061117f565b565b610a10611125565b6107b0600c838361184d565b6060600180546105d490611d6a565b600b5460ff16610a7d5760405162461bcd60e51b815260206004820152601360248201527f4d696e74696e67206e6f7420656e61626c656400000000000000000000000000604482015260640161070f565b600754610a8a9082611d1f565b3414610ad85760405162461bcd60e51b815260206004820152601060248201527f57726f6e67206d696e742076616c756500000000000000000000000000000000604482015260640161070f565b60095481600854610ae99190611d07565b1115610b375760405162461bcd60e51b815260206004820152600860248201527f536f6c64206f7574000000000000000000000000000000000000000000000000604482015260640161070f565b600a54336000908152600e6020526040902054610b55908390611d07565b1115610ba35760405162461bcd60e51b815260206004820152601560248201527f457863656564206d6178207065722077616c6c65740000000000000000000000604482015260640161070f565b60005b81811015610bf35760006008546001610bbf9190611d07565b600880549192506000610bd183611da5565b9190505550610be033826111de565b5080610beb81611da5565b915050610ba6565b5050565b610bf33383836111f8565b610c0c3383610ea0565b610c6e5760405162461bcd60e51b815260206004820152602d60248201527f4552433732313a2063616c6c6572206973206e6f7420746f6b656e206f776e6560448201526c1c881bdc88185c1c1c9bdd9959609a1b606482015260840161070f565b610c7a848484846112c7565b50505050565b610c88611125565b600b805460ff1916911515919091179055565b6000818152600260205260409020546060906001600160a01b0316610d025760405162461bcd60e51b815260206004820152601560248201527f546f6b656e20646f6573206e6f74206578697374210000000000000000000000604482015260640161070f565b600c610d0d83611345565b604051602001610d1e929190611be6565b6040516020818303038152906040529050919050565b610d3c611125565b6001600160a01b038116610db85760405162461bcd60e51b815260206004820152602660248201527f4f776e61626c653a206e6577206f776e657220697320746865207a65726f206160448201527f6464726573730000000000000000000000000000000000000000000000000000606482015260840161070f565b6108d78161117f565b6000818152600260205260409020546001600160a01b03166108d75760405162461bcd60e51b815260206004820152601860248201527f4552433732313a20696e76616c696420746f6b656e2049440000000000000000604482015260640161070f565b6000818152600460205260409020805473ffffffffffffffffffffffffffffffffffffffff19166001600160a01b0384169081179091558190610e67826108f5565b6001600160a01b03167f8c5be1e5ebec7d5bd14f71427d1e84f3dd0314c0f7b2291e5b200ac8c7c3b92560405160405180910390a45050565b600080610eac836108f5565b9050806001600160a01b0316846001600160a01b03161480610ef357506001600160a01b0380821660009081526005602090815260408083209388168352929052205460ff165b80610f175750836001600160a01b0316610f0c84610657565b6001600160a01b0316145b949350505050565b826001600160a01b0316610f32826108f5565b6001600160a01b031614610f965760405162461bcd60e51b815260206004820152602560248201527f4552433732313a207472616e736665722066726f6d20696e636f72726563742060448201526437bbb732b960d91b606482015260840161070f565b6001600160a01b0382166110115760405162461bcd60e51b8152602060048201526024808201527f4552433732313a207472616e7366657220746f20746865207a65726f2061646460448201527f7265737300000000000000000000000000000000000000000000000000000000606482015260840161070f565b826001600160a01b0316611024826108f5565b6001600160a01b0316146110885760405162461bcd60e51b815260206004820152602560248201527f4552433732313a207472616e736665722066726f6d20696e636f72726563742060448201526437bbb732b960d91b606482015260840161070f565b6000818152600460209081526040808320805473ffffffffffffffffffffffffffffffffffffffff199081169091556001600160a01b0387811680865260038552838620805460001901905590871680865283862080546001019055868652600290945282852080549092168417909155905184937fddf252ad1be2c89b69c2b068fc378daa952ba7f163c4a11628f55a4df523b3ef91a4505050565b6006546001600160a01b03163314610a065760405162461bcd60e51b815260206004820181905260248201527f4f776e61626c653a2063616c6c6572206973206e6f7420746865206f776e6572604482015260640161070f565b600680546001600160a01b0383811673ffffffffffffffffffffffffffffffffffffffff19831681179093556040519116919082907f8be0079c531659141344cd1fd0a4f28419497f9722a3daafe3b4186f6b6457e090600090a35050565b610bf38282604051806020016040528060008152506113fd565b816001600160a01b0316836001600160a01b0316141561125a5760405162461bcd60e51b815260206004820152601960248201527f4552433732313a20617070726f766520746f2063616c6c657200000000000000604482015260640161070f565b6001600160a01b03838116600081815260056020908152604080832094871680845294825291829020805460ff191686151590811790915591519182527f17307eab39ab6107e8899845ad3d59bd9653f200f220920489ca2b5937696c31910160405180910390a3505050565b6112d2848484610f1f565b6112de8484848461147b565b610c7a5760405162461bcd60e51b815260206004820152603260248201527f4552433732313a207472616e7366657220746f206e6f6e20455243373231526560448201527131b2b4bb32b91034b6b83632b6b2b73a32b960711b606482015260840161070f565b60606000611352836115d3565b600101905060008167ffffffffffffffff81111561138057634e487b7160e01b600052604160045260246000fd5b6040519080825280601f01601f1916602001820160405280156113aa576020820181803683370190505b5090508181016020015b600019017f3031323334353637383961626364656600000000000000000000000000000000600a86061a8153600a85049450846113f0576113f5565b6113b4565b509392505050565b61140783836116b5565b611414600084848461147b565b6107b05760405162461bcd60e51b815260206004820152603260248201527f4552433732313a207472616e7366657220746f206e6f6e20455243373231526560448201527131b2b4bb32b91034b6b83632b6b2b73a32b960711b606482015260840161070f565b60006001600160a01b0384163b156115c857604051630a85bd0160e11b81526001600160a01b0385169063150b7a02906114bf903390899088908890600401611cb8565b602060405180830381600087803b1580156114d957600080fd5b505af1925050508015611509575060408051601f3d908101601f1916820190925261150691810190611afd565b60015b6115ae573d808015611537576040519150601f19603f3d011682016040523d82523d6000602084013e61153c565b606091505b5080516115a65760405162461bcd60e51b815260206004820152603260248201527f4552433732313a207472616e7366657220746f206e6f6e20455243373231526560448201527131b2b4bb32b91034b6b83632b6b2b73a32b960711b606482015260840161070f565b805181602001fd5b6001600160e01b031916630a85bd0160e11b149050610f17565b506001949350505050565b6000807a184f03e93ff9f4daa797ed6e38ed64bf6a1f010000000000000000831061161c577a184f03e93ff9f4daa797ed6e38ed64bf6a1f010000000000000000830492506040015b6d04ee2d6d415b85acef81000000008310611648576d04ee2d6d415b85acef8100000000830492506020015b662386f26fc10000831061166657662386f26fc10000830492506010015b6305f5e100831061167e576305f5e100830492506008015b612710831061169257612710830492506004015b606483106116a4576064830492506002015b600a83106105bf5760010192915050565b6001600160a01b03821661170b5760405162461bcd60e51b815260206004820181905260248201527f4552433732313a206d696e7420746f20746865207a65726f2061646472657373604482015260640161070f565b6000818152600260205260409020546001600160a01b0316156117705760405162461bcd60e51b815260206004820152601c60248201527f4552433732313a20746f6b656e20616c7265616479206d696e74656400000000604482015260640161070f565b6000818152600260205260409020546001600160a01b0316156117d55760405162461bcd60e51b815260206004820152601c60248201527f4552433732313a20746f6b656e20616c7265616479206d696e74656400000000604482015260640161070f565b6001600160a01b0382166000818152600360209081526040808320805460010190558483526002909152808220805473ffffffffffffffffffffffffffffffffffffffff19168417905551839291907fddf252ad1be2c89b69c2b068fc378daa952ba7f163c4a11628f55a4df523b3ef908290a45050565b82805461185990611d6a565b90600052602060002090601f01602090048101928261187b57600085556118c1565b82601f106118945782800160ff198235161785556118c1565b828001600101855582156118c1579182015b828111156118c15782358255916020019190600101906118a6565b506118cd9291506118d1565b5090565b5b808211156118cd57600081556001016118d2565b80356001600160a01b03811681146118fd57600080fd5b919050565b803580151581146118fd57600080fd5b600060208284031215611923578081fd5b61192c826118e6565b9392505050565b60008060408385031215611945578081fd5b61194e836118e6565b915061195c602084016118e6565b90509250929050565b600080600060608486031215611979578081fd5b611982846118e6565b9250611990602085016118e6565b9150604084013590509250925092565b600080600080608085870312156119b5578081fd5b6119be856118e6565b93506119cc602086016118e6565b925060408501359150606085013567ffffffffffffffff808211156119ef578283fd5b818701915087601f830112611a02578283fd5b813581811115611a1457611a14611dd6565b604051601f8201601f19908116603f01168101908382118183101715611a3c57611a3c611dd6565b816040528281528a6020848701011115611a54578586fd5b82602086016020830137918201602001949094529598949750929550505050565b60008060408385031215611a87578182fd5b611a90836118e6565b915061195c60208401611902565b60008060408385031215611ab0578182fd5b611ab9836118e6565b946020939093013593505050565b600060208284031215611ad8578081fd5b61192c82611902565b600060208284031215611af2578081fd5b813561192c81611dec565b600060208284031215611b0e578081fd5b815161192c81611dec565b60008060208385031215611b2b578182fd5b823567ffffffffffffffff80821115611b42578384fd5b818501915085601f830112611b55578384fd5b813581811115611b63578485fd5b866020828501011115611b74578485fd5b60209290920196919550909350505050565b600060208284031215611b97578081fd5b5035919050565b60008151808452611bb6816020860160208601611d3e565b601f01601f19169290920160200192915050565b60008151611bdc818560208601611d3e565b9290920192915050565b600080845482600182811c915080831680611c0257607f831692505b6020808410821415611c2257634e487b7160e01b87526022600452602487fd5b818015611c365760018114611c4757611c73565b60ff19861689528489019650611c73565b60008b815260209020885b86811015611c6b5781548b820152908501908301611c52565b505084890196505b505050505050611caf611c868286611bca565b7f2e6a736f6e000000000000000000000000000000000000000000000000000000815260050190565b95945050505050565b60006001600160a01b03808716835280861660208401525083604083015260806060830152611cea6080830184611b9e565b9695505050505050565b60208152600061192c6020830184611b9e565b60008219821115611d1a57611d1a611dc0565b500190565b6000816000190483118215151615611d3957611d39611dc0565b500290565b60005b83811015611d59578181015183820152602001611d41565b83811115610c7a5750506000910152565b600181811c90821680611d7e57607f821691505b60208210811415611d9f57634e487b7160e01b600052602260045260246000fd5b50919050565b6000600019821415611db957611db9611dc0565b5060010190565b634e487b7160e01b600052601160045260246000fd5b634e487b7160e01b600052604160045260246000fd5b6001600160e01b0319811681146108d757600080fdfea2646970667358221220e9282c14fbec4929ce697b008cdabbda095b8ec387afa9bc62dc360e07ff997e64736f6c63430008040033",
    "linkReferences": {},
    "deployedLinkReferences": {}
}